{
  "_format": "hh-sol-artifact-1",
  "contractName": "CryptoVan",
  "sourceName": "contracts/CryptoVan.sol",
  "abi": [
    {
      "inputs": [],
      "stateMutability": "nonpayable",
      "type": "constructor"
    },
    {
      "anonymous": false,
      "inputs": [
        {
          "indexed": true,
          "internalType": "address",
          "name": "owner",
          "type": "address"
        },
        {
          "indexed": true,
          "internalType": "address",
          "name": "approved",
          "type": "address"
        },
        {
          "indexed": true,
          "internalType": "uint256",
          "name": "tokenId",
          "type": "uint256"
        }
      ],
      "name": "Approval",
      "type": "event"
    },
    {
      "anonymous": false,
      "inputs": [
        {
          "indexed": true,
          "internalType": "address",
          "name": "owner",
          "type": "address"
        },
        {
          "indexed": true,
          "internalType": "address",
          "name": "operator",
          "type": "address"
        },
        {
          "indexed": false,
          "internalType": "bool",
          "name": "approved",
          "type": "bool"
        }
      ],
      "name": "ApprovalForAll",
      "type": "event"
    },
    {
      "anonymous": false,
      "inputs": [
        {
          "indexed": false,
          "internalType": "address",
          "name": "sender",
          "type": "address"
        },
        {
          "indexed": false,
          "internalType": "uint256",
          "name": "tokenId",
          "type": "uint256"
        }
      ],
      "name": "CryptoVanMinted",
      "type": "event"
    },
    {
      "anonymous": false,
      "inputs": [
        {
          "indexed": true,
          "internalType": "address",
          "name": "from",
          "type": "address"
        },
        {
          "indexed": true,
          "internalType": "address",
          "name": "to",
          "type": "address"
        },
        {
          "indexed": true,
          "internalType": "uint256",
          "name": "tokenId",
          "type": "uint256"
        }
      ],
      "name": "Transfer",
      "type": "event"
    },
    {
      "inputs": [
        {
          "internalType": "address",
          "name": "to",
          "type": "address"
        },
        {
          "internalType": "uint256",
          "name": "tokenId",
          "type": "uint256"
        }
      ],
      "name": "approve",
      "outputs": [],
      "stateMutability": "nonpayable",
      "type": "function"
    },
    {
      "inputs": [
        {
          "internalType": "address",
          "name": "owner",
          "type": "address"
        }
      ],
      "name": "balanceOf",
      "outputs": [
        {
          "internalType": "uint256",
          "name": "",
          "type": "uint256"
        }
      ],
      "stateMutability": "view",
      "type": "function"
    },
    {
      "inputs": [
        {
          "internalType": "uint256",
          "name": "tokenId",
          "type": "uint256"
        }
      ],
      "name": "getApproved",
      "outputs": [
        {
          "internalType": "address",
          "name": "",
          "type": "address"
        }
      ],
      "stateMutability": "view",
      "type": "function"
    },
    {
      "inputs": [
        {
          "internalType": "address",
          "name": "owner",
          "type": "address"
        },
        {
          "internalType": "address",
          "name": "operator",
          "type": "address"
        }
      ],
      "name": "isApprovedForAll",
      "outputs": [
        {
          "internalType": "bool",
          "name": "",
          "type": "bool"
        }
      ],
      "stateMutability": "view",
      "type": "function"
    },
    {
      "inputs": [],
      "name": "mintNFT",
      "outputs": [],
      "stateMutability": "nonpayable",
      "type": "function"
    },
    {
      "inputs": [],
      "name": "name",
      "outputs": [
        {
          "internalType": "string",
          "name": "",
          "type": "string"
        }
      ],
      "stateMutability": "view",
      "type": "function"
    },
    {
      "inputs": [
        {
          "internalType": "uint256",
          "name": "tokenId",
          "type": "uint256"
        }
      ],
      "name": "ownerOf",
      "outputs": [
        {
          "internalType": "address",
          "name": "",
          "type": "address"
        }
      ],
      "stateMutability": "view",
      "type": "function"
    },
    {
      "inputs": [
        {
          "internalType": "uint256",
          "name": "tokenId",
          "type": "uint256"
        }
      ],
      "name": "pickRandomColor",
      "outputs": [
        {
          "internalType": "string",
          "name": "",
          "type": "string"
        }
      ],
      "stateMutability": "view",
      "type": "function"
    },
    {
      "inputs": [
        {
          "internalType": "address",
          "name": "from",
          "type": "address"
        },
        {
          "internalType": "address",
          "name": "to",
          "type": "address"
        },
        {
          "internalType": "uint256",
          "name": "tokenId",
          "type": "uint256"
        }
      ],
      "name": "safeTransferFrom",
      "outputs": [],
      "stateMutability": "nonpayable",
      "type": "function"
    },
    {
      "inputs": [
        {
          "internalType": "address",
          "name": "from",
          "type": "address"
        },
        {
          "internalType": "address",
          "name": "to",
          "type": "address"
        },
        {
          "internalType": "uint256",
          "name": "tokenId",
          "type": "uint256"
        },
        {
          "internalType": "bytes",
          "name": "_data",
          "type": "bytes"
        }
      ],
      "name": "safeTransferFrom",
      "outputs": [],
      "stateMutability": "nonpayable",
      "type": "function"
    },
    {
      "inputs": [
        {
          "internalType": "address",
          "name": "operator",
          "type": "address"
        },
        {
          "internalType": "bool",
          "name": "approved",
          "type": "bool"
        }
      ],
      "name": "setApprovalForAll",
      "outputs": [],
      "stateMutability": "nonpayable",
      "type": "function"
    },
    {
      "inputs": [
        {
          "internalType": "bytes4",
          "name": "interfaceId",
          "type": "bytes4"
        }
      ],
      "name": "supportsInterface",
      "outputs": [
        {
          "internalType": "bool",
          "name": "",
          "type": "bool"
        }
      ],
      "stateMutability": "view",
      "type": "function"
    },
    {
      "inputs": [],
      "name": "symbol",
      "outputs": [
        {
          "internalType": "string",
          "name": "",
          "type": "string"
        }
      ],
      "stateMutability": "view",
      "type": "function"
    },
    {
      "inputs": [
        {
          "internalType": "uint256",
          "name": "tokenId",
          "type": "uint256"
        }
      ],
      "name": "tokenURI",
      "outputs": [
        {
          "internalType": "string",
          "name": "",
          "type": "string"
        }
      ],
      "stateMutability": "view",
      "type": "function"
    },
    {
      "inputs": [
        {
          "internalType": "address",
          "name": "from",
          "type": "address"
        },
        {
          "internalType": "address",
          "name": "to",
          "type": "address"
        },
        {
          "internalType": "uint256",
          "name": "tokenId",
          "type": "uint256"
        }
      ],
      "name": "transferFrom",
      "outputs": [],
      "stateMutability": "nonpayable",
      "type": "function"
    }
  ],
  "bytecode": "0x60806040526040518060c00160405280609e815260200162003fa2609e9139600890805190602001906200003592919062000614565b506040518060600160405280603c8152602001620040e5603c9139600990805190602001906200006792919062000614565b506040518060600160405280603a8152602001620040ab603a9139600a90805190602001906200009992919062000614565b506040518060400160405280601881526020017f2720723d273434272f3e3c2f673e3c672066696c6c3d27230000000000000000815250600b9080519060200190620000e792919062000614565b506040518060400160405280602081526020017f27207374726f6b653d277768697465273e3c636972636c652066696c6c3d2723815250600c90805190602001906200013592919062000614565b506040518060a00160405280606b815260200162004040606b9139600d90805190602001906200016792919062000614565b506040518061018001604052806040518060400160405280600681526020017f364238453233000000000000000000000000000000000000000000000000000081525081526020016040518060400160405280600681526020017f444237303933000000000000000000000000000000000000000000000000000081525081526020016040518060400160405280600681526020017f414446463246000000000000000000000000000000000000000000000000000081525081526020016040518060400160405280600681526020017f324634463446000000000000000000000000000000000000000000000000000081525081526020016040518060400160405280600681526020017f423232323232000000000000000000000000000000000000000000000000000081525081526020016040518060400160405280600681526020017f303038303830000000000000000000000000000000000000000000000000000081525081526020016040518060400160405280600681526020017f464631343933000000000000000000000000000000000000000000000000000081525081526020016040518060400160405280600681526020017f374236384545000000000000000000000000000000000000000000000000000081525081526020016040518060400160405280600681526020017f443236393145000000000000000000000000000000000000000000000000000081525081526020016040518060400160405280600681526020017f393430304433000000000000000000000000000000000000000000000000000081525081526020016040518060400160405280600681526020017f464641303741000000000000000000000000000000000000000000000000000081525081526020016040518060400160405280600681526020017f4230453045360000000000000000000000000000000000000000000000000000815250815250600e90600c62000448929190620006a5565b503480156200045657600080fd5b506040518060400160405280600781526020017f41746f6d4e4654000000000000000000000000000000000000000000000000008152506040518060400160405280600481526020017f41544f4d000000000000000000000000000000000000000000000000000000008152508160009080519060200190620004db92919062000614565b508060019080519060200190620004f492919062000614565b505050620005426040518060400160405280601e81526020017f54686973206973206d79204e465420636f6e74726163742e20576f61682100008152506200054860201b62000eb81760201c565b620008c6565b620005e8816040516024016200055f9190620007da565b6040516020818303038152906040527f41304fac000000000000000000000000000000000000000000000000000000007bffffffffffffffffffffffffffffffffffffffffffffffffffffffff19166020820180517bffffffffffffffffffffffffffffffffffffffffffffffffffffffff8381831617835250505050620005eb60201b60201c565b50565b60008151905060006a636f6e736f6c652e6c6f679050602083016000808483855afa5050505050565b828054620006229062000850565b90600052602060002090601f01602090048101928262000646576000855562000692565b82601f106200066157805160ff191683800117855562000692565b8280016001018555821562000692579182015b828111156200069157825182559160200191906001019062000674565b5b509050620006a191906200070c565b5090565b828054828255906000526020600020908101928215620006f9579160200282015b82811115620006f8578251829080519060200190620006e792919062000614565b5091602001919060010190620006c6565b5b5090506200070891906200072b565b5090565b5b80821115620007275760008160009055506001016200070d565b5090565b5b808211156200074f576000818162000745919062000753565b506001016200072c565b5090565b508054620007619062000850565b6000825580601f1062000775575062000796565b601f0160209004906000526020600020908101906200079591906200070c565b5b50565b6000620007a682620007fe565b620007b2818562000809565b9350620007c48185602086016200081a565b620007cf81620008b5565b840191505092915050565b60006020820190508181036000830152620007f6818462000799565b905092915050565b600081519050919050565b600082825260208201905092915050565b60005b838110156200083a5780820151818401526020810190506200081d565b838111156200084a576000848401525b50505050565b600060028204905060018216806200086957607f821691505b6020821081141562000880576200087f62000886565b5b50919050565b7f4e487b7100000000000000000000000000000000000000000000000000000000600052602260045260246000fd5b6000601f19601f8301169050919050565b6136cc80620008d66000396000f3fe608060405234801561001057600080fd5b50600436106100f55760003560e01c8063514dc8c611610097578063a22cb46511610066578063a22cb46514610284578063b88d4fde146102a0578063c87b56dd146102bc578063e985e9c5146102ec576100f5565b8063514dc8c6146101d65780636352211e1461020657806370a082311461023657806395d89b4114610266576100f5565b8063095ea7b3116100d3578063095ea7b31461017857806314f710fe1461019457806323b872dd1461019e57806342842e0e146101ba576100f5565b806301ffc9a7146100fa57806306fdde031461012a578063081812fc14610148575b600080fd5b610114600480360381019061010f9190612299565b61031c565b6040516101219190612939565b60405180910390f35b6101326103fe565b60405161013f9190612954565b60405180910390f35b610162600480360381019061015d91906122eb565b610490565b60405161016f91906128a9565b60405180910390f35b610192600480360381019061018d919061225d565b610515565b005b61019c61062d565b005b6101b860048036038101906101b39190612157565b6108c0565b005b6101d460048036038101906101cf9190612157565b610920565b005b6101f060048036038101906101eb91906122eb565b610940565b6040516101fd9190612954565b60405180910390f35b610220600480360381019061021b91906122eb565b610a5e565b60405161022d91906128a9565b60405180910390f35b610250600480360381019061024b91906120f2565b610b10565b60405161025d9190612bb4565b60405180910390f35b61026e610bc8565b60405161027b9190612954565b60405180910390f35b61029e60048036038101906102999190612221565b610c5a565b005b6102ba60048036038101906102b591906121a6565b610c70565b005b6102d660048036038101906102d191906122eb565b610cd2565b6040516102e39190612954565b60405180910390f35b6103066004803603810190610301919061211b565b610e24565b6040516103139190612939565b60405180910390f35b60007f80ac58cd000000000000000000000000000000000000000000000000000000007bffffffffffffffffffffffffffffffffffffffffffffffffffffffff1916827bffffffffffffffffffffffffffffffffffffffffffffffffffffffff191614806103e757507f5b5e139f000000000000000000000000000000000000000000000000000000007bffffffffffffffffffffffffffffffffffffffffffffffffffffffff1916827bffffffffffffffffffffffffffffffffffffffffffffffffffffffff1916145b806103f757506103f682610f51565b5b9050919050565b60606000805461040d90612e48565b80601f016020809104026020016040519081016040528092919081815260200182805461043990612e48565b80156104865780601f1061045b57610100808354040283529160200191610486565b820191906000526020600020905b81548152906001019060200180831161046957829003601f168201915b5050505050905090565b600061049b82610fbb565b6104da576040517f08c379a00000000000000000000000000000000000000000000000000000000081526004016104d190612b14565b60405180910390fd5b6004600083815260200190815260200160002060009054906101000a900473ffffffffffffffffffffffffffffffffffffffff169050919050565b600061052082610a5e565b90508073ffffffffffffffffffffffffffffffffffffffff168373ffffffffffffffffffffffffffffffffffffffff161415610591576040517f08c379a000000000000000000000000000000000000000000000000000000000815260040161058890612b74565b60405180910390fd5b8073ffffffffffffffffffffffffffffffffffffffff166105b0611027565b73ffffffffffffffffffffffffffffffffffffffff1614806105df57506105de816105d9611027565b610e24565b5b61061e576040517f08c379a000000000000000000000000000000000000000000000000000000000815260040161061590612a54565b60405180910390fd5b610628838361102f565b505050565b600061063960076110e8565b9050600061064682610940565b9050600061065383610940565b9050600061066084610940565b9050600061066d85610940565b9050600061067a86610940565b90506000600886600987600a88600b89600c8a600d6040516020016106a99b9a9998979695949392919061277d565b604051602081830303815290604052905060006106ec6106c8836110f6565b6040516020016106d89190612838565b6040516020818303038152906040526110f6565b90506000816040516020016107019190612865565b60405160208183030381529060405290506107506040518060400160405280601581526020017f0a2d2d2d2d2d2d2d2d2d2d2d2d2d2d2d2d2d2d2d2d0000000000000000000000815250610eb8565b610778816040516020016107649190612816565b604051602081830303815290604052610eb8565b6107b66040518060400160405280601581526020017f2d2d2d2d2d2d2d2d2d2d2d2d2d2d2d2d2d2d2d2d0a0000000000000000000000815250610eb8565b6107f46040518060400160405280601581526020017f0a2d2d2d2d2d2d2d2d2d2d2d2d2d2d2d2d2d2d2d2d0000000000000000000000815250610eb8565b6107fd81610eb8565b61083b6040518060400160405280601581526020017f2d2d2d2d2d2d2d2d2d2d2d2d2d2d2d2d2d2d2d2d0a0000000000000000000000815250610eb8565b610845338a611295565b61084f89826112b3565b6108596007611327565b61087c604051806060016040528060258152602001613632602591398a3361133d565b7f9c36c3eeb77a50347f66e6556d3d467546f907232f5caff7b1116ed8e2b86219338a6040516108ad929190612910565b60405180910390a1505050505050505050565b6108d16108cb611027565b826113dc565b610910576040517f08c379a000000000000000000000000000000000000000000000000000000000815260040161090790612b94565b60405180910390fd5b61091b8383836114ba565b505050565b61093b83838360405180602001604052806000815250610c70565b505050565b6060600061097461095084611716565b6040516020016109609190612887565b6040516020818303038152906040526118c3565b9050600e80549050816109879190612ef4565b9050600e81815481106109c3577f4e487b7100000000000000000000000000000000000000000000000000000000600052603260045260246000fd5b9060005260206000200180546109d890612e48565b80601f0160208091040260200160405190810160405280929190818152602001828054610a0490612e48565b8015610a515780601f10610a2657610100808354040283529160200191610a51565b820191906000526020600020905b815481529060010190602001808311610a3457829003601f168201915b5050505050915050919050565b6000806002600084815260200190815260200160002060009054906101000a900473ffffffffffffffffffffffffffffffffffffffff169050600073ffffffffffffffffffffffffffffffffffffffff168173ffffffffffffffffffffffffffffffffffffffff161415610b07576040517f08c379a0000000000000000000000000000000000000000000000000000000008152600401610afe90612a94565b60405180910390fd5b80915050919050565b60008073ffffffffffffffffffffffffffffffffffffffff168273ffffffffffffffffffffffffffffffffffffffff161415610b81576040517f08c379a0000000000000000000000000000000000000000000000000000000008152600401610b7890612a74565b60405180910390fd5b600360008373ffffffffffffffffffffffffffffffffffffffff1673ffffffffffffffffffffffffffffffffffffffff168152602001908152602001600020549050919050565b606060018054610bd790612e48565b80601f0160208091040260200160405190810160405280929190818152602001828054610c0390612e48565b8015610c505780601f10610c2557610100808354040283529160200191610c50565b820191906000526020600020905b815481529060010190602001808311610c3357829003601f168201915b5050505050905090565b610c6c610c65611027565b83836118f6565b5050565b610c81610c7b611027565b836113dc565b610cc0576040517f08c379a0000000000000000000000000000000000000000000000000000000008152600401610cb790612b94565b60405180910390fd5b610ccc84848484611a63565b50505050565b6060610cdd82610fbb565b610d1c576040517f08c379a0000000000000000000000000000000000000000000000000000000008152600401610d1390612af4565b60405180910390fd5b6000600660008481526020019081526020016000208054610d3c90612e48565b80601f0160208091040260200160405190810160405280929190818152602001828054610d6890612e48565b8015610db55780601f10610d8a57610100808354040283529160200191610db5565b820191906000526020600020905b815481529060010190602001808311610d9857829003601f168201915b505050505090506000610dc6611abf565b9050600081511415610ddc578192505050610e1f565b600082511115610e11578082604051602001610df9929190612759565b60405160208183030381529060405292505050610e1f565b610e1a84611ad6565b925050505b919050565b6000600560008473ffffffffffffffffffffffffffffffffffffffff1673ffffffffffffffffffffffffffffffffffffffff16815260200190815260200160002060008373ffffffffffffffffffffffffffffffffffffffff1673ffffffffffffffffffffffffffffffffffffffff16815260200190815260200160002060009054906101000a900460ff16905092915050565b610f4e81604051602401610ecc9190612954565b6040516020818303038152906040527f41304fac000000000000000000000000000000000000000000000000000000007bffffffffffffffffffffffffffffffffffffffffffffffffffffffff19166020820180517bffffffffffffffffffffffffffffffffffffffffffffffffffffffff8381831617835250505050611b7d565b50565b60007f01ffc9a7000000000000000000000000000000000000000000000000000000007bffffffffffffffffffffffffffffffffffffffffffffffffffffffff1916827bffffffffffffffffffffffffffffffffffffffffffffffffffffffff1916149050919050565b60008073ffffffffffffffffffffffffffffffffffffffff166002600084815260200190815260200160002060009054906101000a900473ffffffffffffffffffffffffffffffffffffffff1673ffffffffffffffffffffffffffffffffffffffff1614159050919050565b600033905090565b816004600083815260200190815260200160002060006101000a81548173ffffffffffffffffffffffffffffffffffffffff021916908373ffffffffffffffffffffffffffffffffffffffff160217905550808273ffffffffffffffffffffffffffffffffffffffff166110a283610a5e565b73ffffffffffffffffffffffffffffffffffffffff167f8c5be1e5ebec7d5bd14f71427d1e84f3dd0314c0f7b2291e5b200ac8c7c3b92560405160405180910390a45050565b600081600001549050919050565b606060008251141561111957604051806020016040528060008152509050611290565b600060405180606001604052806040815260200161365760409139905060006003600285516111489190612c7d565b6111529190612cd3565b600461115e9190612d04565b9050600060208261116f9190612c7d565b67ffffffffffffffff8111156111ae577f4e487b7100000000000000000000000000000000000000000000000000000000600052604160045260246000fd5b6040519080825280601f01601f1916602001820160405280156111e05781602001600182028036833780820191505090505b509050818152600183018586518101602084015b8183101561124f576003830192508251603f8160121c168501518253600182019150603f81600c1c168501518253600182019150603f8160061c168501518253600182019150603f81168501518253600182019150506111f4565b600389510660018114611269576002811461127957611284565b613d3d60f01b6002830352611284565b603d60f81b60018303525b50505050508093505050505b919050565b6112af828260405180602001604052806000815250611ba6565b5050565b6112bc82610fbb565b6112fb576040517f08c379a00000000000000000000000000000000000000000000000000000000081526004016112f290612ab4565b60405180910390fd5b80600660008481526020019081526020016000209080519060200190611322929190611f7e565b505050565b6001816000016000828254019250508190555050565b6113d783838360405160240161135593929190612976565b6040516020818303038152906040527fe3849f79000000000000000000000000000000000000000000000000000000007bffffffffffffffffffffffffffffffffffffffffffffffffffffffff19166020820180517bffffffffffffffffffffffffffffffffffffffffffffffffffffffff8381831617835250505050611b7d565b505050565b60006113e782610fbb565b611426576040517f08c379a000000000000000000000000000000000000000000000000000000000815260040161141d90612a34565b60405180910390fd5b600061143183610a5e565b90508073ffffffffffffffffffffffffffffffffffffffff168473ffffffffffffffffffffffffffffffffffffffff1614806114a057508373ffffffffffffffffffffffffffffffffffffffff1661148884610490565b73ffffffffffffffffffffffffffffffffffffffff16145b806114b157506114b08185610e24565b5b91505092915050565b8273ffffffffffffffffffffffffffffffffffffffff166114da82610a5e565b73ffffffffffffffffffffffffffffffffffffffff1614611530576040517f08c379a000000000000000000000000000000000000000000000000000000000815260040161152790612b34565b60405180910390fd5b600073ffffffffffffffffffffffffffffffffffffffff168273ffffffffffffffffffffffffffffffffffffffff1614156115a0576040517f08c379a0000000000000000000000000000000000000000000000000000000008152600401611597906129f4565b60405180910390fd5b6115ab838383611c01565b6115b660008261102f565b6001600360008573ffffffffffffffffffffffffffffffffffffffff1673ffffffffffffffffffffffffffffffffffffffff16815260200190815260200160002060008282546116069190612d5e565b925050819055506001600360008473ffffffffffffffffffffffffffffffffffffffff1673ffffffffffffffffffffffffffffffffffffffff168152602001908152602001600020600082825461165d9190612c7d565b92505081905550816002600083815260200190815260200160002060006101000a81548173ffffffffffffffffffffffffffffffffffffffff021916908373ffffffffffffffffffffffffffffffffffffffff160217905550808273ffffffffffffffffffffffffffffffffffffffff168473ffffffffffffffffffffffffffffffffffffffff167fddf252ad1be2c89b69c2b068fc378daa952ba7f163c4a11628f55a4df523b3ef60405160405180910390a4505050565b6060600082141561175e576040518060400160405280600181526020017f300000000000000000000000000000000000000000000000000000000000000081525090506118be565b600082905060005b6000821461179057808061177990612eab565b915050600a826117899190612cd3565b9150611766565b60008167ffffffffffffffff8111156117d2577f4e487b7100000000000000000000000000000000000000000000000000000000600052604160045260246000fd5b6040519080825280601f01601f1916602001820160405280156118045781602001600182028036833780820191505090505b5090505b600085146118b75760018261181d9190612d5e565b9150600a8561182c9190612ef4565b60306118389190612c7d565b60f81b818381518110611874577f4e487b7100000000000000000000000000000000000000000000000000000000600052603260045260246000fd5b60200101907effffffffffffffffffffffffffffffffffffffffffffffffffffffffffffff1916908160001a905350600a856118b09190612cd3565b9450611808565b8093505050505b919050565b6000816040516020016118d69190612742565b6040516020818303038152906040528051906020012060001c9050919050565b8173ffffffffffffffffffffffffffffffffffffffff168373ffffffffffffffffffffffffffffffffffffffff161415611965576040517f08c379a000000000000000000000000000000000000000000000000000000000815260040161195c90612a14565b60405180910390fd5b80600560008573ffffffffffffffffffffffffffffffffffffffff1673ffffffffffffffffffffffffffffffffffffffff16815260200190815260200160002060008473ffffffffffffffffffffffffffffffffffffffff1673ffffffffffffffffffffffffffffffffffffffff16815260200190815260200160002060006101000a81548160ff0219169083151502179055508173ffffffffffffffffffffffffffffffffffffffff168373ffffffffffffffffffffffffffffffffffffffff167f17307eab39ab6107e8899845ad3d59bd9653f200f220920489ca2b5937696c3183604051611a569190612939565b60405180910390a3505050565b611a6e8484846114ba565b611a7a84848484611c06565b611ab9576040517f08c379a0000000000000000000000000000000000000000000000000000000008152600401611ab0906129b4565b60405180910390fd5b50505050565b606060405180602001604052806000815250905090565b6060611ae182610fbb565b611b20576040517f08c379a0000000000000000000000000000000000000000000000000000000008152600401611b1790612b54565b60405180910390fd5b6000611b2a611abf565b90506000815111611b4a5760405180602001604052806000815250611b75565b80611b5484611716565b604051602001611b65929190612759565b6040516020818303038152906040525b915050919050565b60008151905060006a636f6e736f6c652e6c6f679050602083016000808483855afa5050505050565b611bb08383611d9d565b611bbd6000848484611c06565b611bfc576040517f08c379a0000000000000000000000000000000000000000000000000000000008152600401611bf3906129b4565b60405180910390fd5b505050565b505050565b6000611c278473ffffffffffffffffffffffffffffffffffffffff16611f6b565b15611d90578373ffffffffffffffffffffffffffffffffffffffff1663150b7a02611c50611027565b8786866040518563ffffffff1660e01b8152600401611c7294939291906128c4565b602060405180830381600087803b158015611c8c57600080fd5b505af1925050508015611cbd57506040513d601f19601f82011682018060405250810190611cba91906122c2565b60015b611d40573d8060008114611ced576040519150601f19603f3d011682016040523d82523d6000602084013e611cf2565b606091505b50600081511415611d38576040517f08c379a0000000000000000000000000000000000000000000000000000000008152600401611d2f906129b4565b60405180910390fd5b805181602001fd5b63150b7a0260e01b7bffffffffffffffffffffffffffffffffffffffffffffffffffffffff1916817bffffffffffffffffffffffffffffffffffffffffffffffffffffffff191614915050611d95565b600190505b949350505050565b600073ffffffffffffffffffffffffffffffffffffffff168273ffffffffffffffffffffffffffffffffffffffff161415611e0d576040517f08c379a0000000000000000000000000000000000000000000000000000000008152600401611e0490612ad4565b60405180910390fd5b611e1681610fbb565b15611e56576040517f08c379a0000000000000000000000000000000000000000000000000000000008152600401611e4d906129d4565b60405180910390fd5b611e6260008383611c01565b6001600360008473ffffffffffffffffffffffffffffffffffffffff1673ffffffffffffffffffffffffffffffffffffffff1681526020019081526020016000206000828254611eb29190612c7d565b92505081905550816002600083815260200190815260200160002060006101000a81548173ffffffffffffffffffffffffffffffffffffffff021916908373ffffffffffffffffffffffffffffffffffffffff160217905550808273ffffffffffffffffffffffffffffffffffffffff16600073ffffffffffffffffffffffffffffffffffffffff167fddf252ad1be2c89b69c2b068fc378daa952ba7f163c4a11628f55a4df523b3ef60405160405180910390a45050565b600080823b905060008111915050919050565b828054611f8a90612e48565b90600052602060002090601f016020900481019282611fac5760008555611ff3565b82601f10611fc557805160ff1916838001178555611ff3565b82800160010185558215611ff3579182015b82811115611ff2578251825591602001919060010190611fd7565b5b5090506120009190612004565b5090565b5b8082111561201d576000816000905550600101612005565b5090565b600061203461202f84612bf4565b612bcf565b90508281526020810184848401111561204c57600080fd5b612057848285612e06565b509392505050565b60008135905061206e816135d5565b92915050565b600081359050612083816135ec565b92915050565b60008135905061209881613603565b92915050565b6000815190506120ad81613603565b92915050565b600082601f8301126120c457600080fd5b81356120d4848260208601612021565b91505092915050565b6000813590506120ec8161361a565b92915050565b60006020828403121561210457600080fd5b60006121128482850161205f565b91505092915050565b6000806040838503121561212e57600080fd5b600061213c8582860161205f565b925050602061214d8582860161205f565b9150509250929050565b60008060006060848603121561216c57600080fd5b600061217a8682870161205f565b935050602061218b8682870161205f565b925050604061219c868287016120dd565b9150509250925092565b600080600080608085870312156121bc57600080fd5b60006121ca8782880161205f565b94505060206121db8782880161205f565b93505060406121ec878288016120dd565b925050606085013567ffffffffffffffff81111561220957600080fd5b612215878288016120b3565b91505092959194509250565b6000806040838503121561223457600080fd5b60006122428582860161205f565b925050602061225385828601612074565b9150509250929050565b6000806040838503121561227057600080fd5b600061227e8582860161205f565b925050602061228f858286016120dd565b9150509250929050565b6000602082840312156122ab57600080fd5b60006122b984828501612089565b91505092915050565b6000602082840312156122d457600080fd5b60006122e28482850161209e565b91505092915050565b6000602082840312156122fd57600080fd5b600061230b848285016120dd565b91505092915050565b61231d81612d92565b82525050565b61232c81612da4565b82525050565b600061233d82612c3a565b6123478185612c50565b9350612357818560208601612e15565b61236081612fe1565b840191505092915050565b600061237682612c45565b6123808185612c61565b9350612390818560208601612e15565b61239981612fe1565b840191505092915050565b60006123af82612c45565b6123b98185612c72565b93506123c9818560208601612e15565b80840191505092915050565b600081546123e281612e48565b6123ec8186612c72565b9450600182166000811461240757600181146124185761244b565b60ff1983168652818601935061244b565b61242185612c25565b60005b8381101561244357815481890152600182019150602081019050612424565b838801955050505b50505092915050565b6000612461602583612c72565b915061246c82612ff2565b602582019050919050565b6000612484603283612c61565b915061248f82613041565b604082019050919050565b60006124a7601c83612c61565b91506124b282613090565b602082019050919050565b60006124ca602483612c61565b91506124d5826130b9565b604082019050919050565b60006124ed601983612c61565b91506124f882613108565b602082019050919050565b6000612510602c83612c61565b915061251b82613131565b604082019050919050565b6000612533603883612c61565b915061253e82613180565b604082019050919050565b6000612556602a83612c61565b9150612561826131cf565b604082019050919050565b6000612579602983612c61565b91506125848261321e565b604082019050919050565b600061259c602e83612c61565b91506125a78261326d565b604082019050919050565b60006125bf600283612c72565b91506125ca826132bc565b600282019050919050565b60006125e2602083612c61565b91506125ed826132e5565b602082019050919050565b6000612605603183612c61565b91506126108261330e565b604082019050919050565b6000612628602c83612c61565b91506126338261335d565b604082019050919050565b600061264b602983612c61565b9150612656826133ac565b604082019050919050565b600061266e602f83612c61565b9150612679826133fb565b604082019050919050565b6000612691606983612c72565b915061269c8261344a565b606982019050919050565b60006126b4602183612c61565b91506126bf826134e5565b604082019050919050565b60006126d7601d83612c72565b91506126e282613534565b601d82019050919050565b60006126fa603183612c61565b91506127058261355d565b604082019050919050565b600061271d600583612c72565b9150612728826135ac565b600582019050919050565b61273c81612dfc565b82525050565b600061274e82846123a4565b915081905092915050565b600061276582856123a4565b915061277182846123a4565b91508190509392505050565b6000612789828e6123d5565b9150612795828d6123a4565b91506127a1828c6123d5565b91506127ad828b6123a4565b91506127b9828a6123d5565b91506127c582896123a4565b91506127d182886123d5565b91506127dd82876123a4565b91506127e982866123d5565b91506127f582856123a4565b915061280182846123d5565b91508190509c9b505050505050505050505050565b600061282182612454565b915061282d82846123a4565b915081905092915050565b600061284382612684565b915061284f82846123a4565b915061285a826125b2565b915081905092915050565b6000612870826126ca565b915061287c82846123a4565b915081905092915050565b600061289282612710565b915061289e82846123a4565b915081905092915050565b60006020820190506128be6000830184612314565b92915050565b60006080820190506128d96000830187612314565b6128e66020830186612314565b6128f36040830185612733565b81810360608301526129058184612332565b905095945050505050565b60006040820190506129256000830185612314565b6129326020830184612733565b9392505050565b600060208201905061294e6000830184612323565b92915050565b6000602082019050818103600083015261296e818461236b565b905092915050565b60006060820190508181036000830152612990818661236b565b905061299f6020830185612733565b6129ac6040830184612314565b949350505050565b600060208201905081810360008301526129cd81612477565b9050919050565b600060208201905081810360008301526129ed8161249a565b9050919050565b60006020820190508181036000830152612a0d816124bd565b9050919050565b60006020820190508181036000830152612a2d816124e0565b9050919050565b60006020820190508181036000830152612a4d81612503565b9050919050565b60006020820190508181036000830152612a6d81612526565b9050919050565b60006020820190508181036000830152612a8d81612549565b9050919050565b60006020820190508181036000830152612aad8161256c565b9050919050565b60006020820190508181036000830152612acd8161258f565b9050919050565b60006020820190508181036000830152612aed816125d5565b9050919050565b60006020820190508181036000830152612b0d816125f8565b9050919050565b60006020820190508181036000830152612b2d8161261b565b9050919050565b60006020820190508181036000830152612b4d8161263e565b9050919050565b60006020820190508181036000830152612b6d81612661565b9050919050565b60006020820190508181036000830152612b8d816126a7565b9050919050565b60006020820190508181036000830152612bad816126ed565b9050919050565b6000602082019050612bc96000830184612733565b92915050565b6000612bd9612bea565b9050612be58282612e7a565b919050565b6000604051905090565b600067ffffffffffffffff821115612c0f57612c0e612fb2565b5b612c1882612fe1565b9050602081019050919050565b60008190508160005260206000209050919050565b600081519050919050565b600081519050919050565b600082825260208201905092915050565b600082825260208201905092915050565b600081905092915050565b6000612c8882612dfc565b9150612c9383612dfc565b9250827fffffffffffffffffffffffffffffffffffffffffffffffffffffffffffffffff03821115612cc857612cc7612f25565b5b828201905092915050565b6000612cde82612dfc565b9150612ce983612dfc565b925082612cf957612cf8612f54565b5b828204905092915050565b6000612d0f82612dfc565b9150612d1a83612dfc565b9250817fffffffffffffffffffffffffffffffffffffffffffffffffffffffffffffffff0483118215151615612d5357612d52612f25565b5b828202905092915050565b6000612d6982612dfc565b9150612d7483612dfc565b925082821015612d8757612d86612f25565b5b828203905092915050565b6000612d9d82612ddc565b9050919050565b60008115159050919050565b60007fffffffff0000000000000000000000000000000000000000000000000000000082169050919050565b600073ffffffffffffffffffffffffffffffffffffffff82169050919050565b6000819050919050565b82818337600083830152505050565b60005b83811015612e33578082015181840152602081019050612e18565b83811115612e42576000848401525b50505050565b60006002820490506001821680612e6057607f821691505b60208210811415612e7457612e73612f83565b5b50919050565b612e8382612fe1565b810181811067ffffffffffffffff82111715612ea257612ea1612fb2565b5b80604052505050565b6000612eb682612dfc565b91507fffffffffffffffffffffffffffffffffffffffffffffffffffffffffffffffff821415612ee957612ee8612f25565b5b600182019050919050565b6000612eff82612dfc565b9150612f0a83612dfc565b925082612f1a57612f19612f54565b5b828206905092915050565b7f4e487b7100000000000000000000000000000000000000000000000000000000600052601160045260246000fd5b7f4e487b7100000000000000000000000000000000000000000000000000000000600052601260045260246000fd5b7f4e487b7100000000000000000000000000000000000000000000000000000000600052602260045260246000fd5b7f4e487b7100000000000000000000000000000000000000000000000000000000600052604160045260246000fd5b6000601f19601f8301169050919050565b7f68747470733a2f2f6e6674707265766965772e30786465762e636f6465732f3f60008201527f636f64653d000000000000000000000000000000000000000000000000000000602082015250565b7f4552433732313a207472616e7366657220746f206e6f6e20455243373231526560008201527f63656976657220696d706c656d656e7465720000000000000000000000000000602082015250565b7f4552433732313a20746f6b656e20616c7265616479206d696e74656400000000600082015250565b7f4552433732313a207472616e7366657220746f20746865207a65726f2061646460008201527f7265737300000000000000000000000000000000000000000000000000000000602082015250565b7f4552433732313a20617070726f766520746f2063616c6c657200000000000000600082015250565b7f4552433732313a206f70657261746f7220717565727920666f72206e6f6e657860008201527f697374656e7420746f6b656e0000000000000000000000000000000000000000602082015250565b7f4552433732313a20617070726f76652063616c6c6572206973206e6f74206f7760008201527f6e6572206e6f7220617070726f76656420666f7220616c6c0000000000000000602082015250565b7f4552433732313a2062616c616e636520717565727920666f7220746865207a6560008201527f726f206164647265737300000000000000000000000000000000000000000000602082015250565b7f4552433732313a206f776e657220717565727920666f72206e6f6e657869737460008201527f656e7420746f6b656e0000000000000000000000000000000000000000000000602082015250565b7f45524337323155524953746f726167653a2055524920736574206f66206e6f6e60008201527f6578697374656e7420746f6b656e000000000000000000000000000000000000602082015250565b7f227d000000000000000000000000000000000000000000000000000000000000600082015250565b7f4552433732313a206d696e7420746f20746865207a65726f2061646472657373600082015250565b7f45524337323155524953746f726167653a2055524920717565727920666f722060008201527f6e6f6e6578697374656e7420746f6b656e000000000000000000000000000000602082015250565b7f4552433732313a20617070726f76656420717565727920666f72206e6f6e657860008201527f697374656e7420746f6b656e0000000000000000000000000000000000000000602082015250565b7f4552433732313a207472616e73666572206f6620746f6b656e2074686174206960008201527f73206e6f74206f776e0000000000000000000000000000000000000000000000602082015250565b7f4552433732314d657461646174613a2055524920717565727920666f72206e6f60008201527f6e6578697374656e7420746f6b656e0000000000000000000000000000000000602082015250565b7f7b226e616d65223a202272616e646f6d222c20226465736372697074696f6e2260008201527f3a20224120636f6c6c656374696f6e206f662064796e616d69632056616e657360208201527f7361222c2022696d616765223a2022646174613a696d6167652f7376672b786d60408201527f6c3b6261736536342c0000000000000000000000000000000000000000000000606082015250565b7f4552433732313a20617070726f76616c20746f2063757272656e74206f776e6560008201527f7200000000000000000000000000000000000000000000000000000000000000602082015250565b7f646174613a6170706c69636174696f6e2f6a736f6e3b6261736536342c000000600082015250565b7f4552433732313a207472616e736665722063616c6c6572206973206e6f74206f60008201527f776e6572206e6f7220617070726f766564000000000000000000000000000000602082015250565b7f434f4c4f52000000000000000000000000000000000000000000000000000000600082015250565b6135de81612d92565b81146135e957600080fd5b50565b6135f581612da4565b811461360057600080fd5b50565b61360c81612db0565b811461361757600080fd5b50565b61362381612dfc565b811461362e57600080fd5b5056fe416e204e465420772f20494420257320686173206265656e206d696e74656420746f2025734142434445464748494a4b4c4d4e4f505152535455565758595a6162636465666768696a6b6c6d6e6f707172737475767778797a303132333435363738392b2fa2646970667358221220a32e172f194206ae0895ab8b3aa332664e7944ba735610fd06fe76d0ba9fe54a64736f6c634300080400333c73766720786d6c6e733d27687474703a2f2f7777772e77332e6f72672f323030302f737667272076696577426f783d272d3532202d3533203130302031303027207374726f6b652d77696474683d2732273e3c672066696c6c3d276e6f6e65273e3c656c6c69707365207374726f6b653d2723464638433030272072783d2736272072793d273434272f3e3c656c6c69707365207374726f6b653d27232720723d273133272f3e3c636972636c652063793d272d34342720723d2739272f3e3c636972636c652063783d272d3430272063793d2731382720723d2739272f3e3c636972636c652063783d273430272063793d2731382720723d2739272f3e3c2f673e3c2f7376673e272072783d2736272072793d27343427207472616e73666f726d3d27726f7461746528363629272f3e3c636972636c65207374726f6b653d2723272072783d2736272072793d27343427207472616e73666f726d3d27726f74617465282d363629272f3e3c656c6c69707365207374726f6b653d2723",
  "linkReferences": {},
  "deployedLinkReferences": {}
}